:040000000C945C0000
:100004000C9400000C9400000C9400000C9400006C
:100014000C9400000C9400000C9400000C9400005C
:100024000C9400000C9400000C9400000C9400004C
:100034000C9400000C9400000C9400000C9400003C
:100044000C9400000C9400000C9400000C9400002C
:100054000C9400000C9400000C9400000C9400001C
:100064000C9400001027E80364000A00010000104B
:100074000001100001005006017A140CFFFF00007B
:1000840011005002017A140B14005003017A140D6C
:1000940013FE5002017A140A15000B0000037A00C3
:1000A40007002D038600080043038E000700590350
:1000B40096000000F894EE27EFBBF1E0F5BFE5BF32
:1000C4008DE0A2E0BB27ED938A95E9F780E098E004
:1000D400A0E0B1E0ED930197E9F7EEE9F0E0859156
:1000E4009591009761F0A591B59105901590BF0188
:1000F400F00105900D920197E1F7FB01F0CFE0E0EC
:10010400EEBBEFEFEDBFE8E0EEBFC0E0D3E00C9450
:100114008B00E2E0E093C000E8E1E093C100E6E098
:10012400E093C200E0E0E093C500ECE0E093C4009B
:10013400569A579A0E949B010E94A1011B974CF466
:100144000E94A601E050FD4FA081E9D00E94AB01BE
:10015400F3CFE091C000E072E1F30E949B010E94A2
:10016400A10151979CF40E94A601ABE0B3E0EE0F0D
:10017400FF1FEA0FFB1FFF93EF93CAD0AF91BF910C
:10018400F0E0ED93FC930E94AB01E9CF0E949B0148
:100194000E94A10117974CF40E94A601E35DFC4F55
:1001A400A081BDD00E94AB01F3CFE091C000E0720A
:1001B400E1F30E949B010E94A1011D976CF40E942F
:1001C400A601EC5CFC4FFF93EF93A2D0AF91BF91DB
:1001D400EC930E94AB01EFCFA8E8B3E10E94BC010D
:1001E4000E949B010E94A10117974CF40E94A60152
:1001F400E75AFC4FA08193D00E94AB01F3CFE0916A
:10020400C000E072E1F30E949B010E94A1015F978C
:100214006CF40E94A601E05AFC4FFF93EF9378D050
:10022400AF91BF91EC930E94AB01EFCFA0EDB7E08B
:100234000E94BC01E0917103F0E0E0938203F0932B
:1002440083030E94B301119739F45F9A0E94B801A5
:100254005F98A8EEB3E022C00E94B301129739F46C
:100264005E9A0E94B8015E98A8EEB3E017C00E949F
:10027400B301139749F45E9A5F9A0E94B8015E989D
:100284005F98A8EEB3E00AC05E9A5F9AA4E6B0E075
:100294000E94BC015E985F98A4E6B0E00E94BC0195
:1002A4000E94B3010E94C60168F50E949B010E944E
:1002B400A10118974CF40E94A601ED5BFC4FA081AC
:1002C4002ED00E94AB01F3CFE091C000E072E1F3C5
:1002D4000E949B010E94A1011E976CF40E94A6013A
:1002E400E55BFC4FFF93EF9313D0AF91BF91EC9379
:1002F4000E94AB01EFCFA2E8B3E0ED91FD913197FD
:10030400FE93EE93A0EDB7E00E94BC013FCFFFCF78
:10031400E091C000E078E1F3E091C6000895AA936B
:10032400E091C000E072E1F3E881E093C600219619
:100334000895E0E0E0938003E09381030895A091A1
:100344008003B09181030895E0918003F0918103CB
:100354000895A0E8B3E0ED91FD913196FE93EE93FC
:100364000895A0918203B09183030895A8EEB3E0A9
:100374000C94BC01109639F08AEF90E00197F1F7E4
:10038400A8951197C9F7089500240A160B06089535
:00000001FF
